S02300004763634170706C69636174696F6E365F6B6E6967687472696465722E7372656350
S11300000C9434000C943E000C943E000C943E007E
S11300100C943E000C943E000C943E000C943E0064
S11300200C943E000C943E000C943E000C943E0054
S11300300C943E000C943E000C943E000C943E0044
S11300400C943E000C943E000C943E000C943E0034
S11300500C943E000C943E000C943E000C943E0024
S11300600C943E000C943E0011241FBECFEFD8E048
S1130070DEBFCDBF0E9440000C948F000C940000A2
S11300808FEF8AB984B18D7F84B985B1826085B9D7
S1130090199B1DC042C04BB181E090E0022E02C00A
S11300A0880F991F0A94E2F7942F982B9BB94FEF6E
S11300B059E668E1415050406040E1F700C000005B
S11300C09BB1809589238BB92F5F3F4F02C021E0FC
S11300D030E029303105FCF228E030E01BC04BB1A0
S11300E081E090E0022E02C0880F991F0A94E2F783
S11300F0942F982B9BB94FEF59E668E1415050403B
S11301006040E1F700C000009BB1809589238BB962
S11301102150310933231CF7BBCF1BB8B9CFF89456
S1050120FFCF0B
S9030000FC
