:100000000C9434000C943E000C943E000C943E0082
:100010000C943E000C943E000C943E000C943E0068
:100020000C943E000C943E000C943E000C943E0058
:100030000C943E000C943E000C943E000C943E0048
:100040000C943E000C943E000C943E000C943E0038
:100050000C943E000C943E000C943E000C943E0028
:100060000C943E000C943E0011241FBECFEFD8E04C
:10007000DEBFCDBF0E9440000C9456000C940000DF
:100080008AB18A6A8AB984B18B7F84B985B1846068
:1000900085B91A99FECF9BB18AEA89278BB987EA7D
:1000A00091E60197F1F700C00000F3CFF894FFCF7D
:00000001FF
