S01900004763634170706C69636174696F6E355F332E73726563C3
S11300000C9434000C943E000C943E000C943E007E
S11300100C943E000C943E000C943E000C943E0064
S11300200C943E000C943E000C943E000C943E0054
S11300300C943E000C943E000C943E000C943E0044
S11300400C943E000C943E000C943E000C943E0034
S11300500C943E000C943E000C943E000C943E0024
S11300600C943E000C943E0011241FBECFEFD8E048
S1130070DEBFCDBF0E9440000C945C000C940000D5
S11300808AB18FEF8AB984B18D7F84B923B181E0BD
S113009090E002C0880F991F2A95E2F795B1892B49
S11300A085B9299906C083E294EF0197F1F700C05E
S10F00B0000081E08BB9F5CFF894FFCF7D
S9030000FC
