S01700004763634170706C69636174696F6E352E7372656357
S11300000C9434000C943E000C943E000C943E007E
S11300100C943E000C943E000C943E000C943E0064
S11300200C943E000C943E000C943E000C943E0054
S11300300C943E000C943E000C943E000C943E0044
S11300400C943E000C943E000C943E000C943E0034
S11300500C943E000C943E000C943E000C943E0024
S11300600C943E000C943E0011241FBECFEFD8E048
S1130070DEBFCDBF0E9440000C9450000C940000E1
S11300808AB185658AB984B18B7F84B985B184606E
S113009085B91A99FECF9BB185E589278BB9F9CF2C
S10700A0F894FFCFFE
S9030000FC
