:100000000C9434000C943E000C943E000C943E0082
:100010000C943E000C943E000C943E000C943E0068
:100020000C943E000C943E000C943E000C943E0058
:100030000C943E000C943E000C943E000C943E0048
:100040000C943E000C943E000C943E000C943E0038
:100050000C943E000C943E000C943E000C943E0028
:100060000C943E000C943E0011241FBECFEFD8E04C
:10007000DEBFCDBF0E9440000C9453000C940000E2
:100080008FEF8AB984B18D7F84B985B1826085B9DB
:10009000199905C09BB182E089278BB9F9CF8BB143
:0A00A0008D7F8BB9F5CFF894FFCFE8
:00000001FF
