S01A00004763634170706C69636174696F6E6B6579372E7372656309
S11300000C9434000C943E000C943E000C943E007E
S11300100C943E000C943E000C943E000C943E0064
S11300200C943E000C943E000C943E000C943E0054
S11300300C943E000C943E000C943E000C943E0044
S11300400C943E000C943E000C943E000C943E0034
S11300500C943E000C943E000C943E000C943E0024
S11300600C943E000C943E0011241FBECFEFD8E048
S1130070DEBFCDBF0E9440000C9496000C9400009B
S1130080199B22C051C04BB181E090E0FC01022ECB
S113009002C0EE0FFF1F0A94E2F7062E02C0880F7B
S11300A0991F0A94E2F78E2B842B8BB94FEF89E6C4
S11300B098E1415080409040E1F700C000002F5F7C
S11300C03F4F6150710904C067E070E020E030E008
S11300D024303105C4F264E070E023E030E021C054
S11300E04BB181E090E0FC01022E02C0EE0FFF1F35
S11300F00A94E2F7062E02C0880F991F0A94E2F7C9
S11301008E2B809584238BB94FEF89E698E141507B
S113011080409040E1F700C00000215031096F5F3A
S11301207F4F3323ECF6ACCF1BB8AACFF894FFCFA4
S9030000FC
