S01C00004763634170706C69636174696F6E365F376C65642E7372656386
S11300000C9434000C943E000C943E000C943E007E
S11300100C943E000C943E000C943E000C943E0064
S11300200C943E000C943E000C943E000C943E0054
S11300300C943E000C943E000C943E000C943E0044
S11300400C943E000C943E000C943E000C943E0034
S11300500C943E000C943E000C943E000C943E0024
S11300600C943E000C943E0011241FBECFEFD8E048
S1130070DEBFCDBF0E9440000C946F000C940000C2
S11300808FEF8AB984B18D7F84B985B1826085B9D7
S1130090199B1DC022C04BB181E090E0022E02C02A
S11300A0880F991F0A94E2F7942F982B9BB94FEF6E
S11300B053EC69E0415050406040E1F700C000005B
S11300C09BB1809589238BB92F5F3F4F02C020E0FD
S11300D030E028303105FCF2DBCF1BB8D9CFF894DF
S10500E0FFCF4C
S9030000FC
