:100000000C9434000C943E000C943E000C943E0082
:100010000C943E000C943E000C943E000C943E0068
:100020000C943E000C943E000C943E000C943E0058
:100030000C943E000C943E000C943E000C943E0048
:100040000C943E000C943E000C943E000C943E0038
:100050000C943E000C943E000C943E000C943E0028
:100060000C943E000C943E0011241FBECFEFD8E04C
:10007000DEBFCDBF0E9440000C94AD000C94000088
:100080008FEF8AB984B18D7F84B985B1826085B9DB
:10009000199961C08BB181688BB92FEF89E698E11E
:1000A000215080409040E1F700C000008BB18E7776
:1000B0008BB92FEF89E698E1215080409040E1F71D
:1000C00000C000008BB182648BB92FEF89E698E104
:1000D000215080409040E1F700C000008BB18D7B43
:1000E0008BB92FEF89E698E1215080409040E1F7ED
:1000F00000C000008BB184628BB92FEF89E698E1D4
:10010000215080409040E1F700C000008BB18B7D12
:100110008BB92FEF89E698E1215080409040E1F7BC
:1001200000C000008BB188618BB92FEF89E698E1A0
:10013000215080409040E1F700C000008BB1877EE5
:100140008BB92FEF89E698E1215080409040E1F78C
:0E01500000C000009DCF1BB89BCFF894FFCFDE
:00000001FF
