S01A00004763634170706C69636174696F6E6B6579362E737265630A
S11300000C9434000C943E000C943E000C943E007E
S11300100C943E000C943E000C943E000C943E0064
S11300200C943E000C943E000C943E000C943E0054
S11300300C943E000C943E000C943E000C943E0044
S11300400C943E000C943E000C943E000C943E0034
S11300500C943E000C943E000C943E000C943E0024
S11300600C943E000C943E0011241FBECFEFD8E048
S1130070DEBFCDBF0E9440000C9486000C940000AB
S11300808FEF8AB984B18D7F84B985B1826085B9D7
S1130090199B18C039C04BB181E090E0022E02C018
S11300A0880F991F0A94E2F7842B8BB94FEF89E6E6
S11300B098E1415080409040E1F700C000002F5F7C
S11300C03F4F02C020E030E02830310524F327E020
S11300D030E017C04BB181E090E0022E02C0880FDF
S11300E0991F0A94E2F7809584238BB94FEF89E630
S11300F098E1415080409040E1F700C00000215059
S1130100310933233CF7C4CF1BB8C2CFF894FFCFD7
S9030000FC
