S01700004763634170706C69636174696F6E332E7372656359
S11300000C9434000C943E000C943E000C943E007E
S11300100C943E000C943E000C943E000C943E0064
S11300200C943E000C943E000C943E000C943E0054
S11300300C943E000C943E000C943E000C943E0044
S11300400C943E000C943E000C943E000C943E0034
S11300500C943E000C943E000C943E000C943E0024
S11300600C943E000C943E0011241FBECFEFD8E048
S1130070DEBFCDBF0E9440000C9461000C940000D0
S11300808FEF8AB984B18D7F84B985B1826085B9D7
S113009020E030E01999FECF2BB94BB181E090E01C
S11300A002C0880F991F4A95E2F79BB1890F8BB95B
S11300B02A30310518F019B820E030E02F5F3F4FA7
S10900C0E9CFF894FFCF24
S9030000FC
